:020000040000FA
:10000000021F3F022003FFFFFFFFFF02200BFFFF45
:10001000FFFFFF022013FFFFFFFFFF02201BFFFF78
:10002000FFFFFF022023FFFFFFFFFF02202BFFFF48
:10003000FFFFFF022033FFFFFFFFFF02203BFFFF18
:10004000FFFFFF022043FFFFFFFFFF02204BFFFFE8
:10005000FFFFFF022053FFFFFFFFFF02205BFFFFB8
:10006000FFFFFF022063FFFFFFFFFF02206BFFFF88
:10007000FFFFFF022073FFFFFFFFFF02207BFFFF58
:10008000FFFFFF022083FFFFFFFFFF02208BFFFF28
:10009000FFFF70DFFFFF040000000002000000C847
:1000A000030002030369A5020269A532730000017F
:1000B00000000000000400FFFFFFFFFFFFFFFF0440
:1000C00003090424035400650078006100730020D4
:1000D0000049006E0073007400720075006D0065C9
:1000E000006E007400730024035400490020004394
:1000F000004300320035003300310020005500532A
:10010000004200200043004400430000035F005F02
:100110000030005800000000000000000000000057
:1001200000000000000000000000000000000000CF
:100130000000000000303132333435363738394171
:100140004243444546331C881C881C881C881C90EC
:100150001C74F8121BCD900391E06015900302749B
:10016000FEF0900304744DF0A37405F07A011207B9
:100170001C7F01021D6C74F8121BCD74FF121EB699
:100180007E00801F851882851983E064FE700690CA
:1001900003877401F0851882851983E0F890038441
:1001A000E068F07901AA18AB191210E9E9700302AE
:1001B0000287851882851983E064EF70027E07E06C
:1001C000C0E0900387E0FA900385E0F8EA28F8E4BD
:1001D0003400F9740228F582740339F583D0E0F015
:1001E000900387E0609E14600E14602B14603B1433
:1001F0006051146067809E900384E4F085188285C6
:100200001983E0900386F0C394809003874003E451
:1002100080827402020194851882851983E090031C
:1002200082F09003877403020194851882851983F4
:10023000E0900383F0900386E060199003877404D4
:10024000020194900385E004F0F8900386E0686072
:10025000030201959003877405020194900385E4DD
:10026000F0900387F0900384E0F885188285198365
:10027000E0686003020195900382E0644D60030230
:1002800001951203BF8002EEF97401121E370201BC
:100290007174F7121BCD74FB121EB6EAFEEBFF75EC
:1002A00008047509007808121ED07402121F377AEC
:1002B000907B0079041218EB7402121E3712070E9D
:1002C000121F88E0687003A3E069701285188285A8
:1002D0001983E0F47003A3E0F4600302039A74044A
:1002E000121F2F1207708A088B09A808A909740227
:1002F000121F88E8F0A3E9F07404121F88E0600878
:1003000079011201510203B3851882851983E068CF
:100310007003A3E0697076851882851983E0F47014
:1003200003A3E0F470197402121F887410F0A37410
:1003300020F08518828519837410F0A37420F0755D
:1003400008017509007808121ED07402121F377A4E
:10035000247B0812196F7402121E3775080478087E
:10036000121ED07402121F377A907B007904121883
:10037000EB7402121E3712070E121F88E06870031A
:10038000A3E069700479028006790480027903127F
:1003900001518E828F83741E80058E828F83E4F0DC
:1003A00012070E121F88E0687003A3E069700479D9
:1003B00001800279007405121E377F02021D6C74E1
:1003C000ED121BCD74F8121EB6900307E0FD9003EA
:1003D00006E0FCFAEDF8E4C8F9EA28FEE93408FF83
:1003E000751001750B00750A068E088F0974027866
:1003F00008121F1CC39508F8E49509F9740228F542
:100400000E740339F50F8E088F0974097808121FCE
:100410004EE508F511EE2410F508E43FF509EEF578
:100420000CEF5401F50D900383E014605914700330
:100430000204FB14700302057614601024FE70039E
:100440000206311470030206E10206F1750A03790F
:100450004E1213BD9003071207047402F0A37440F8
:100460001207027408120702F0A3F07418C394076D
:1004700004F510AA10A90B12071CA90A7408121E71
:10048000377F0C021D6C750A04794E1213BDEE45C0
:100490000D7005A9111219D5C3EE9425EF940850DB
:1004A0003CC3E5089424E50994084031E50E249600
:1004B000F8E50F3420F988828983E0701BA3AA82B3
:1004C000AB83E070139003887401F0888289837491
:1004D000A5F08A828B838004900388E4F07508106D
:1004E0007509007808121ED07C087D03EEFAEFFB38
:1004F00012196F7402121E37020473750A05E51192
:10050000C394794006750B0102047375124075138C
:10051000007812121ED07C097D037402780C121F21
:100520001CAA0CAB0DA9111218EB7402121E379005
:100530000307E0A3F0900306E0A3F0751043C3EEB9
:100540009425EF94084003020473C3E5089424E55E
:100550000994085003020473900388E070030204B6
:1005600073E50E2497F8E50F3420F988828983E437
:10057000F0A3F00204737508047509007808121ED0
:10058000D07402121F377A907B0079041218EB7432
:1005900002121E377402121F88E0F8A3E0F98518D2
:1005A00082851983E0687003A3E069851882851944
:1005B00083700BE0F47003A3E0F470578009E0F45B
:1005C0007003A3E0F4700D8518828519837410F010
:1005D000A37420F012070E121F88E8F0A3E9F0754B
:1005E00008017808121ED07402121F377A247B0883
:1005F00012196F7402121E377508047808121ED083
:100600007402121F377A907B0079041218EB74027F
:10061000121E3712070E121F88E0687003A3E069EC
:100620007006750A01020473750A02750B0702044D
:10063000739003D6E0600764026003020473EDFF69
:100640007A01790012071CE060030206D5800312CC
:10065000118512116CE970F77404121F881206F6E6
:100660007404121F887808121F6C85080C85090D08
:10067000850A0E850B0F9003C2780C121EF67404C7
:10068000121F88780C121F5DE5084509450A450BC5
:1006900070CE8EC2E5C554E04FF5C57404121F88B4
:1006A0001206F67404121F887808121F6C85080C55
:1006B00085090D850A0E850B0F9003C2780C121E5A
:1006C000F67404121F88780C121F5DE50845094571
:1006D0000A450B70CE7A01790012071C79080204D2
:1006E0007CEC900391F07003020473750A09020414
:1006F00073790602047CE4F0A37426F0A3E4F0A36B
:10070000F022F0A3E4F0A3F0A3F0A3F0A322851855
:1007100082851983E0F8A3E0F974022274F8121BB1
:10072000CDEAFE900305E0D2E7F0E9A3F0EE9003F6
:1007300003F08E0874042AFE7C028004E062080C38
:10074000ECFA3395E0FB74022AF58274033BF583DF
:10075000EEF8C3EA98EB9400A2D265D03340DDE511
:1007600008F074012AF97A027B0312112702017141
:1007700074E9121BCD7582007583FE121E198A164C
:100780008B177514007515008A828B83E4F0900333
:10079000D6E07006D2AAD2AF800464027005790058
:1007A000120151750C00750D20750E00750F00902B
:1007B00003D6E0600464027015121185120176E917
:1007C000F874096860030208AC7900120151E06412
:1007D000027007A29240030208877508007509029B
:1007E0007808121ED07402121F37850C08850D0977
:1007F000AA08E5095407FB850E0A850F0B740B78D0
:1008000008121E87A9081218EB7402121E377E0008
:100810007F009003CAC0828E10EFF5113395E0F58A
:1008200012F513850C08850D09850E0A850F0B78C6
:10083000087910121F099003C67808121EF67583F6
:1008400003D0827808121DFA501D851882851983FD
:10085000E5822EF582E5833FF583E0F9AA14AB1516
:100860001208DB8A148B150EEE70010FC3EF940291
:1008700040A09003CE780C121EF69003D2780C1292
:100880001DFA40030207AF7900AA14AB151208DB6A
:1008900079001208DB8B159003D6E07004C2AFC25A
:1008A000AAEA451570277AA57BA58021E870030286
:1008B00007CE74066870030207CE740768700302DF
:1008C00007CE8516828517837401F080BA75820081
:1008D000758302121E197F10021D6CC008C0097CAE
:1008E000088A088B09740F7808121F4EE508F8EA89
:1008F00025E0FAEB33FBE9A2E7500474014AFAE879
:10090000A2E0500874216AFA74106BFBE9C333F952
:100910001CEC70CDD009D00822C082C083120F33E6
:1009200060030209F0A3E0F8A3E060030209F0A36A
:10093000E064027002A3E060030209F09003B8E0F3
:100940002480600914604F14605C0209F0E86003C1
:100950000209F09003B2E060047801800278009010
:1009600003C0E8F0A3E4F09003B1E0600A9003C094
:10097000E04402F0A3E4F09003A6E0640460149065
:1009800003B374C0F0A37403F0A3E4F0A3740212E1
:100990000F95F0020E6E90039FE064047052900376
:1009A000C0E4F0A380D0E8547FFA90039FE0640491
:1009B000703EEAC394065038749F2AF582E43403EB
:1009C000F583E854806018A3A3A3A3A3A3A3E064C2
:1009D0000370047801800278009003C0E88094E5F9
:1009E00082240CF58250020583E0640370E980E301
:1009F0009003A67404809B74F8121BCDE9FE90034B
:100A0000BE120F366003020AD990039FE0640460AF
:100A10000B9003BC120F366003020AD99003B8E0B2
:100A2000541F6009146030146020020AD99003BA80
:100A3000E064017022EE9003B1F060047905800259
:100A400079067A00121BCB020ADF9003BCE0547FC8
:100A5000FA9003BAE060057900020AE1EAC394065D
:100A60005077EA90620EF0749F2AF8E43403F9900C
:100A700003BCE05480602EEE600474108002744069
:100A8000906211F0EE60047B0380027B00EB8882B1
:100A90008983A3A3A3A3A3A3A3F0EE600479088092
:100AA0002F7907802BEE60047B2080027B80EB9007
:100AB0006214F0EE60047B0380027B00E8240CF5F6
:100AC00082E439F583EBF0EE6004790A800279095B
:100AD000121BCB90620EE480059003A67404F0799B
:100AE000017F01021D6C79001209F7E97003121BE6
:100AF000BA2279011209F7E97003121BC922C082D8
:100B0000C0839003BC120F367015A3120F36700FFE
:100B10009003BA120CD95480FAE9FBEA4B600790B3
:100B200003A67404801AE8906200F090039F6009A5
:100B3000E06402700C74038007E0640370037402C5
:100B4000F0020E6E74F5121BCD9003BAE0FAA3E02A
:100B50001460081460101460398057121754120C76
:100B6000B6A37B8080417900121776120CB67B8089
:100B7000E92402F9E43AFA121E6DFC1919E0FAA30D
:100B8000E92403F9E43AFA121E6DF9ECA3F0A3E9A3
:100B9000801CEAF91217E49003B3EAF0A3EBF0A388
:100BA000E4120CC5A37B00121E6DA3F0A3E4F002B7
:100BB0000C709003B3E4F0A3F0A3F0750B00900465
:100BC0007DE0FAA3E0FB020C4E850B08750900746A
:100BD000037808121F1CEA2508F8EB3509F9900381
:100BE000BA120CCFE493C0E0EFFCD0E06C705DA3D0
:100BF000E4936E70579003BC120CCFA3A3E493C090
:100C0000E0EFFCD0E06C704488828983A3A3A3E466
:100C1000936E703888828983A3A3A3A3E493F50815
:100C2000740193F5099003B3E508F0A3E509F0A377
:100C30007480F088828983A3A3A3A3A3A3E493F879
:100C4000740193F99003B6E8F0A3E9F0050B900462
:100C50007F120CD9C39AF508E99BF509740378084B
:100C6000121F4EC3E50B9508E495095003020BC90A
:100C70009003B3E0FCA3E0FDA3E0FEEC4D4E900337
:100C8000A6700474048029E0640460259003BEE02B
:100C9000FAA3E0FB9003B6E0F8A3E0F9C3EA98EB0F
:100CA0009950089003B6EAF0A3EBF09003A6740104
:100CB000F07F04021D6C9003B3EAF0A3EBF0A37481
:100CC00080120CC522F09003B3E0F9A3E0FA22E011
:100CD000FEA3E0FF8882898322E0F8A3E0F9E822FE
:100CE00074EE121BCDEA2404F8E43BF98808890964
:100CF0008882F583E4936025900481120CD9FEE983
:100D0000FF8007EE2404FE50010F8E828F83E49350
:100D1000F8740193F9EA687002EB6970E6750B00EC
:100D2000803F9062147490F07410120E3570037549
:100D30000A408E828F83A3A3A3E493550E6006E539
:100D40000AD2E0F50AE50A906215F0EA906213F023
:100D5000EC240CF582E43DF583E4F090620EF0059E
:100D60000B850882850983E493F8E50BC39840035B
:100D7000020E307A0079051216E78A0C8B0DEA45CF
:100D80000D60DCEA2402F8E4350DF9881089118839
:100D900082F583E493540FF51290620EF0750A0009
:100DA0008A828B83A3A3A3A3E4932407F50EA3E471
:100DB000933400F50F7403780E121F4EAA0EA8127A
:100DC000749F28F8E43403F9E8FCE9FD750E017519
:100DD0000F00E512780E121F1CE50EF50EE50C242F
:100DE00003F8E4350DF9851082851183E493A2E7B9
:100DF0004003020D229062117448F07408120E35FF
:100E00007003750A408E828F83A3A3E493550E600E
:100E100006E50AD2E0F50AE50A906212F0EA90626D
:100E200010F08C828D83A3A3A3A3A3A3A3020D59C7
:100E30007F0B021D6CF088828983E4935403640164
:100E400022C082C083120F337010A3120F36700AB3
:100E5000A3E064017002A3E060079003A67404801D
:100E60000C9003B374A0F0A37403120F8BF0D08323
:100E7000D0822274F3121BCD90039FE064026014B1
:100E80009003BC120F36700CA3120F36700690033D
:100E9000BBE060099003A67404F0020F2E7A00797B
:100EA00001121BCB9003BAE0606F7A00F91217763B
:100EB0008A0A8B0BEA450B605890039F7404F090EC
:100EC00003BAE09003A0F0750800850A82850B83C1
:100ED000A3A3A3A3E493F8E508C398504AA8087411
:100EE000A128F8E43403F9E8FEE9FF8E828F83E459
:100EF000F07A0079041216E78A828B83A3A3A3E415
:100F000093F88E828F83E06870E7120CE00508800A
:100F1000B99003A67404F0800E9003A0F090039F94
:100F20007403F0F91216677A007902121BCB7F0660
:100F3000021D6C9003BAE0F8A3E0F9E8492274F6C8
:100F4000121BCD90039FE0640470199003B8E06415
:100F5000817011120F33700C9003BEE064017002B7
:100F6000A3E060079003A67404801A9003BCE024F9
:100F7000A1F508A3E03403F5099003B3E508F0A355
:100F8000E509120F8BF07F03021D6CF0A3E4F0A3C0
:100F900004120F9522F0A3E4F09003A6042274F744
:100FA000121BCD90039FE0640470649003B8E0646A
:100FB00001705C9003BE120F3670549003BAE0FBD0
:100FC0009003BCE0FA9003A0E0F91217AE8A088BF8
:100FD00009AE08AF09EE4F60369003BCE0FA790322
:100FE000121BCB9003BAE0C0E09003BCE024A1F850
:100FF000A3E03403F988828983D0E0F0EEFAEFFBB6
:10100000120CE09003BCE0FA7904121BCB8006902E
:1010100003A67404F07F02021D6CC082C0838003AB
:10102000121A31A2E840F9A823E854046009782391
:10103000E654FBF612140EA823E854106009782336
:10104000E654EFF612142FA823E8A2E05005782307
:1010500054FCF690620EE0FA7404F0906214E0A280
:10106000E05039A9A8C2AF906216E0F8A3E0E8FB0F
:10107000E9A2E792AF8017906228E0C0E090039366
:10108000E0F812111CD0E0F0900393E004F0EBFDC7
:1010900074FF2DFB0470E0906214E4F0EA90620E9D
:1010A000F0E0FC7404F0906211E0A2E040319003A3
:1010B00095E0F8900394E06860257A4090039412DC
:1010C000115FE0906228F0900394E004F008900330
:1010D00095E06860041AEA70E39062117401F0EC24
:1010E00090620EF0D083D0822274F8121BCDE9FEFC
:1010F0007900801212111CE08A828B83F090039297
:10110000E00412115409900392E0F8900393E06810
:101110006005E9C39E40DD7F01021D6C748528F5E2
:1011200082E43404F58322C082C083E9FC80188AFB
:10113000828B83E0C0E090039512115FD0E0121122
:1011400054900395E004F0ECF874FF28FC0470DF81
:1011500079018090F08A828B83A3AA82AB8322E0FC
:10116000F8748528F582E43405F58322C082C083B3
:10117000900395E0F8900394E068600479018002A0
:1011800079000210E402101A74FB121EB67E009061
:1011900006857808121F6C794A1213BD9006857473
:1011A00001F0A3F0A37469F0A374A5F09003D778BD
:1011B00008121EE170047E0180159003DB7808128E
:1011C0001EE16008E59D541864107003022000EED3
:1011D000F9121334C280D291EEA2E050030212E75A
:1011E000AA18AB19120291E970030212E7C29185A5
:1011F0001882851983E0C3943C500EE0F8743CC318
:1012000098F50895E0F5098006750800750900E471
:10121000F50AF50B9003DF780C121F6C7808790C37
:10122000121AD1790612015112101A120176E9F838
:101230007409687007790612015180277407686085
:1012400016A2935012E8600874066860030212E761
:10125000A292400F0212E7750800750900750A0096
:10126000750B0085080C85090D850A0E850B0F90FE
:1012700003C27808121EF6E50C450D450E450F70A9
:10128000A7D2807907120151800312101A12116C33
:10129000E970F77E007F007401121F88E4F0A374E8
:1012A00026F0A3E4F0A3F07401121F887808121F3F
:1012B0006C85080C85090D850A0E850B0F9003C2FD
:1012C000780C121EF67401121F88780C121F5DE54F
:1012D000084509450A450B70CEA29250FCA29350D6
:1012E000F81213B8022000D280D291794E1213BDA9
:1012F000750800750900750A00750B007905120163
:101300005112101A120176E9F874096860EE74013E
:101310006870EE12101A9003E37808121EF690031C
:10132000E77808121DFA50EB1213B802200074057A
:10133000121E372274F8121BCDE9FE53BEFBE59D49
:10134000A2E650FA0078F8790100E824FF18E934A1
:10135000FFF9E84970F375C6807480659E70FA43A2
:10136000BE049062707408F01213ADEE700853F46E
:10137000FEC29043FE017403F5D575D4899003969F
:10138000E4F0A374C2F0A37401F0A3E4F0A3F0A30B
:10139000F0A37408F01213D37AFF7BFF1219EC53F9
:1013A000F4FED29043FE011213AD021117D2804316
:1013B000FD01C29143FE0222D280C29122781075B3
:1013C000B60FE5B4A2E750FAE5BBC39940F118E8BF
:1013D00070ED2274F7121BCD7A0079011217768A0C
:1013E000828B83A3A3A3A3A3A3A3E493A2E6900366
:1013F000B2500474018001E4F09003B1E4F0906213
:101400000F7403F0E0A2E750FB7F02021D6CC08264
:10141000C08390039F7402F0A3E4F09003A6F079D8
:1014200003121667752100752200D083D0822274C2
:10143000F6121BCD90620EE0FEE4F0906211E0FF28
:10144000A2E4501D7480F09003A67407F0E52145D6
:10145000226009852182852283121F979003A6E4CA
:10146000F0EFA2E2500B906211E4F09003A6F0803E
:10147000679003A6E0F87402687046906216E0FF79
:101480009003B3121DACEFF97A207B6212168174BF
:1014900003121E37EFF89003B612164512164F2F9F
:1014A000121657A3E0F8A3E0F9E8496004744080FD
:1014B000027448906211F0E849600302163B02167C
:1014C000177406687009852182852283121F979000
:1014D00003A6E060030215C2EFA2E0400302163B40
:1014E0007508B8750903750A007808121ECC7908CA
:1014F0007A207B621216817403121E3775210075E3
:1015000022009003B8E054E0601D24E0700302154F
:101510009D24E0607224C0604824E070030215A896
:1015200024E0606E0215B3A3E014602624FE601D63
:1015300024FE600A24FC601F24FE60208075120ACD
:10154000FE9003A6E06404707278608070120AF264
:1015500080EF120AE680EA120E7380E5120F9E8079
:10156000E0A3E0600E24FA600F24FE601024FE6009
:1015700011804012091980C9120B4480C4120E4117
:1015800080BF120F3E80BA7521B675221B121BB6A2
:1015900080AF7521B875221B121BB880A47521512C
:1015A00075221B121B51809975218175221B121BFC
:1015B00081808E9003A67404F0808E7840E890625B
:1015C00011F09003A6E0F874016870617F02900347
:1015D000B6E0F8A3E0F9C3E89420E994005007E8E6
:1015E000F5087F0A80037508209003B3121DACA98B
:1015F000087A207B621216AC7403121E37AC0812F4
:10160000164F2C121657A808A3121645EF90621118
:10161000F0E8C394205024E5214522600985218209
:10162000852283121F979003A6E4F0800E7405684C
:101630007009852182852283121F97EE90620EF039
:101640007F03021D6CC3E098F0A3E09400F02290A9
:1016500003B31216D9E922F9E43AFA9003B3E9F098
:10166000A3EAF0A3EBF022C082C083E99003A7783D
:1016700005F0A3D8FC9003AC7805F0A3D8FC0214C5
:101680002A74F8121BCDEAFCEBFDE9F87408121F6E
:10169000881216D460118C828D83E0121EA0E9247A
:1016A0000109E43AFAD8EF7F01021D6C74F8121BAD
:1016B000CDEAFCEBFDE9F87408121F881216D4601D
:1016C00011121E6D8C828D83F0E9240109E43AFA2F
:1016D000D8EF80D31216D9E822E0F9A3E0FAA3E00C
:1016E000FB22D083D08222C082C083E9FCEAFD7A4B
:1016F000007B00800312173290039DE0F8A3E0F90D
:1017000090047BE0687003A3E069602490039EE08E
:10171000F5838882A3E493F8EC68700D90039DE054
:10172000FAA3E0FB1217328007ED6870C8ED60C5C0
:1017300080B090039DE0F8A3E0F5838882E493F8FD
:1017400090039DE028F8A3E03400F990039DE8F0B1
:10175000A3E9F022C082C0831217657A00790112D2
:1017600016E70216E2900479E0F8A3E0F990039DF1
:10177000E8F0A3E9F02274F7121BCDE9FFEAFE12AC
:1017800017657A0079021216E7EA4B601CEF6010C9
:101790008A828B83A3A3A3A3A3E4936F70E480093D
:1017A000EEF874FF28FE0470D97F02021D6C74F5F8
:1017B000121BCDEAFF8B087A001217767A027904A1
:1017C0001216E7EA4B60188A828B83A3A3E4936F17
:1017D00070EA8A828B83A3A3A3E493650870DD7FFC
:1017E00004021D6C74F7121BCD74F0121EB6E97A58
:1017F000007B00600C146010146014146018021850
:10180000D47AF37B030218D47AF77B030218D47AD4
:101810001B7B040218D490043FE060030218D090B0
:1018200003EB7408121F377408121DD9750808F5E8
:10183000097808121ED07402121F377AE87B0779E4
:101840007F1218EB7402121E377808121ED0740A29
:10185000121F377402121F2F121C907402121E37AF
:101860008B09EA450970197509007808121ED07CA9
:101870000C7D787402121F2F121D267402121E375F
:101880007C287D00EDF8851882851983E58228F58E
:1018900082E43583F583E0FFECF8743F28F8E43404
:1018A00004F9EF1218DC88828983F0EFC41218DC87
:1018B000C0E0E824FEF582E934FFF583D0E0F00DC6
:1018C00074FC2CFCEDC3940840BA90043F742AF0D9
:1018D0007A3F7B047410121E370217A9540FFA7452
:1018E000692AF582E43404F583E02274F6121BCDF4
:1018F000890A740F550AF508750900740B780812E7
:101900001F1CEA2400F8EB3480F9E82400E93509CB
:10191000F985C709A2AFE433F508C2AFE50AC4549C
:101920000FFAE5C754F84AF5C7740A121F88E0FA9F
:10193000A3E0FB801C88828983E08C828D83F08801
:10194000828983A3A882A9838C828D83A3AC82AD74
:1019500083EAFEEBFFEE24FF1AEF34FFFBEE4F703D
:10196000D48509C7E508A2E092AF7F03021D6C741D
:10197000F7121BCDED900389F0ECA3F0A37462F095
:10198000A37473F0A3E0541FF07409121F88E0F5EC
:1019900008A3E0F509E508333354FC90038EF07496
:1019A000067808121F4EE50890038DF090038F749F
:1019B00012F0A37442F075D1FE75D601EA906271FF
:1019C000F0EBA3F0906270E0D2E1F0E0A2E740FB20
:1019D0007F02021D6CC082C083E9C333906272F043
:1019E000906270E0D2E0F0D083D0822274F7121BB4
:1019F000CD7523007524007525008A268B27EA9073
:101A0000620BF08A088B0974047808121F4EE508EF
:101A1000906207F08A088B0974097808121F4EE556
:101A200008543E906209F0758B00C2E87F02021DE7
:101A30006C74F7121BCDE59DA2E650FA906206E0A9
:101A4000F9A2E25034AA26EA90620BF0F508852745
:101A50000974047808121F4EE508906207F08A089E
:101A600085270974097808121F4EE508543E9062D4
:101A700009F0906201E0D2E0F0E9782346F6906246
:101A800002E0F50875090074047808121F1C782319
:101A9000E50846F608E50946F6906204E0F50875A3
:101AA000090074097808121F1C7824E50946F6E934
:101AB000A2E050037525017406596003752500E501
:101AC0008BA2E55006758BDF752500121BCC021A20
:101AD00027080808EAC0E0EBC0E086F0E7A4FA189F
:101AE0000986F0E7A42AFA180986F0E7A42AFA186A
:101AF0000986F0E7A42AFA1986F0E7A4FBE5F02AA4
:101B0000FA190886F0E7A42BFBE5F03AFA190886E3
:101B1000F0E7A42BFBE5F03AFA18180986F0E7A4E1
:101B2000C5F02BFBE43AFA1908E7C5F0C6A426F67F
:101B3000E5F03BFBE43AFA1886F0E7A4F6E5F00896
:101B400026F6E43B08F6E43A08F6D0E0FBD0E0FAEB
:101B500022C082C0839003B9E0F8742268700890B4
:101B600003A6E0701A80117420689003A6700DE03F
:101B7000700D121BA89003A6740280027404F080FA
:101B800043C082C0839003B9E064219003A6701320
:101B9000E07013121BA8A37407F0A3E4F09003A64F
:101BA0000480027404F0801C9003B37496F0A37454
:101BB00003F0A3E4F02280028000C082C08390037F
:101BC000A67404F0D083D0822280EF22222518C58B
:101BD00082C0E0E51934FFC583C0E0E518C39582F3
:101BE00024F910AF08858319858218800885831928
:101BF000858218D2AFCEF0A3E520F0A37808E608DE
:101C0000F0A3DEFAEFF0A3E58124FBF8E608F0A3E9
:101C1000E608F0A30808E608F0A3E608F0A315819B
:101C20001581D0E0FED0E0F815811581E8C0E0EE26
:101C3000C0E02212010002020000205104A816098F
:101C40000001020301090243000201008019090496
:101C50000000010202010005240010010424020218
:101C60000524060001052401000107058203400048
:101C70004009040100020A00000007058402400038
:101C800000070504024000004E1C0000711C00000B
:101C900074F8121BCD7408121F88E0FEA3E08015B3
:101CA000A3AA82AB838C828D83A3AC82AD83EE2406
:101CB000FF1EEF34FFFFEE4F60198C828D83E0F83A
:101CC0008A828B83E0F9E86960D6E9C398FA95E0E7
:101CD000FB80047A007B007F01021D6CE47921788F
:101CE00007B800028004F709D8FCE490030278C129
:101CF00079018002F0A3D8FCD9FA7AC27B03900064
:101D00008E78C479018015E493A3AD82AE838A8274
:101D10008B83F0A3AA82AB838D828E83D8E9D9E727
:101D2000121188121F9274F7121BCDEAF8EBF974A6
:101D300009121F88E0FEA3E0FF80188C828D83E0EB
:101D400088828983F0A3A882A9838C828D83A3AC27
:101D500082AD838E088F09E50824FF1EE50934FF54
:101D6000FFE508450970D47F02021D6C8519838543
:101D70001882E0A3FEE0A3F5207808E0A3F608DFD0
:101D8000FAE0A3FFE0A3C0E0E0A3C0E0E0A3C0E06E
:101D9000E0A3C0E010AF088582188583198008850C
:101DA0008218858319D2AFD083D082227403800039
:101DB000CCC0E0EDC0E0E518C39CCCAD1950011DCE
:101DC00010AF068C188D1980068C188D19D2AF12A1
:101DD0001DD9D0E0FDD0E0FC22CAC0E0E0A3C5825E
:101DE000CCC582C583CDC583F0A3C582CCC582C5D1
:101DF00083CDC583DAE6D0E0CA22C008C3E096F5F9
:101E00000808A3E096420808A3E096420808A3E069
:101E10009645087001D3D00822C5822518C582C511
:101E200083351910AF07F5198582188007F51985D4
:101E30008218D2AFC5832200C0D0251810AF08F594
:101E400018500C05198008F51850020519D2AFD0AA
:101E5000D0222518F58210AF08F518400C1519800E
:101E600008F51840021519D2AF85198322BB01026B
:101E7000E722C082C08389828A83BB0003E080029C
:101E8000E493D083D082226016080808C6C313C624
:101E900018C613C618C613C618C613C6D5E0EA225C
:101EA000BB000EC082C0838A838982F0D083D08237
:101EB00022BB0101F722251810AF08F518400C15B8
:101EC000198008F51840021519D2AF227403800456
:101ED00074028000C0E0F404121E52D0E0121F7B96
:101EE00022E066701008A3E066700A08A3E066703E
:101EF0000408A3E06622E026F608A3E036F608A36D
:101F0000E036F608A3E036F622E627F60809E637BB
:101F1000F60809E637F60809E637F622700422606B
:101F20000D18C6C333C608C633C6D5E0F41822253B
:101F300018FAE43519FB222518FCE43519FD227541
:101F4000D00075813F751802751903021CDC600C06
:101F500008C6C313C618C613C6D5E0F422E6F008B7
:101F6000A3E6F008A3E6F008A3E6F022E0F608A353
:101F7000E0F608A3E0F608A3E0F622CAC0E0E6F027
:101F8000A308DAFAD0E0FA222518F582E43519F52B
:101F9000832200000080FBE473FFFFFFFFFFFFFFD1
:101FA000FFFFFFFFFFFFFFFFFFFFFFFFFFFFFFFF41
:101FB000FFFFFFFFFFFFFFFFFFFFFFFFFFFFFFFF31
:101FC000FFFFFFFFFFFFFFFFFFFFFFFFFFFFFFFF21
:101FD000FFFFFFFFFFFFFFFFFFFFFFFFFFFFFFFF11
:101FE000FFFFFFFFFFFFFFFFFFFFFFFFFFFFFFFF01
:0A1FF600850609433886000000004C
:020000040003F7
:01FFF000F020
:0400000500001F3F99
:00000001FF
